:100000000A128A11112D00308A000408840A82071E
:10001000003445346E3474346534723420345034D2
:1000200061347334733463346F34643465343A3414
:10003000003455346E346C346F3463346B3465344F
:10004000643400344534723472346F3472340034A2
:1009A400F0308316031386007F30F0007008810551
:1009B400080001300A128A119A250A128A110D3090
:1009C400F500FB30F400F40BE52CF50BE52CEA2CD8
:1009D40008007E088A007F088200EB240A128A112C
:1009E4008000840A04087D0603190034FF0A0319F1
:1009F400FE0AEF2C3734383439342F343434353458
:100A040036342A343134323433342D3443343034AC
:100A14003D342B3431343234333434340034FB0138
:100A2400FC01FD01B501B601B701B801B901831399
:100A34003530FD000430FE00FC30FF00203084001F
:100A44000A128A11EF240A128A1183010A128A11E6
:100A54004E2EF5003E2D750884000A128A110320DB
:100A64000A128A110A128A11F4250A128A11013013
:100A7400F4007408F5073E2D750884000A128A11E3
:100A840003200A128A110038031D492D4A2D2D2DE9
:100A94004B2D080038300A128A119A250A128A113D
:100AA4000C300A128A119A250A128A1106300A1287
:100AB4008A119A250A128A1180300A128A119A25FB
:100AC4000A128A110630F6000E30F500B030F40038
:100AD400F40B6A2DF50B6A2DF60B6A2D0800F50050
:100AE400742D742D7508840083130008F2007008B7
:100AF40084000130F0070003FF3A7207F300730823
:100B0400F400F408031D872D882D932D75088400A7
:100B14000130F5078008031D902D912D742D932D20
:100B2400932D7408F000F101F01BF103992D0800D6
:100B3400F3008312031307110F30F00070088805C7
:100B44007308F039F0007008880487150330F20048
:100B54008830F1005630F000F00BAE2DF10BAE2DC5
:100B6400F20BAE2D8312031387110330F200883089
:100B7400F1005630F000F00BBD2DF10BBD2DF20B42
:100B8400BD2D0F30F000700883120313880573081D
:100B9400F00003300310F00DFF3E031DCC2D0310B5
:100BA400700DF039F1007108880487150330F200E4
:100BB4008830F1005630F000F00BDE2DF10BDE2D05
:100BC400F20BDE2D8312031387110330F2008830F9
:100BD400F1005630F000F00BED2DF10BED2DF20B82
:100BE400ED2D0800F3008312031307150F30F000F6
:100BF400700888057308F039F000700888048715B8
:100C04000330F2008830F1005630F000F00B082E6B
:100C1400F10B082EF20B082E8312031387110330F5
:100C2400F2008830F1005630F000F00B172EF10B73
:100C3400172EF20B172E0F30F000700883120313D7
:100C440088057308F00003300310F00DFF3E031D08
:100C5400262E0310700DF039F100710888048715F1
:100C64000330F2008830F1005630F000F00B382EDB
:100C7400F10B382EF20B382E831203138711033035
:100C8400F2008830F1005630F000F00B472EF10BE3
:100C9400472EF20B472E08000A128A114C250A121D
:100CA4008A110A128A11D2240A128A118316031392
:100CB400061088018312031307100A128A11DB2419
:100CC4000A128A1101300A128A112B250A128A117A
:100CD4000630F9000E30F800B030F700F70B702E34
:100CE400F80B702EF90B702E772EC7300A128A116A
:100CF4009A250A128A110A128A11F1260A128A11F5
:100D0400F7007708FA007A08031D892E772E2A3017
:100D14000A128A11F4250A128A117A08F7007C084B
:100D2400353E84007708831380000130F70077088C
:100D3400FC077C08043A031DA02EA12E772E8312F3
:100D44000313B9013030F7007708F00035300A1288
:100D54008A1171250A128A1171087004031DB32EB9
:100D6400B42EC32E0A128A11DB240A128A111130FE
:100D74000A128A112B250A128A11831203130714EB
:100D8400D22E0A128A11DB240A128A111A300A128C
:100D94008A112B250A128A11831203130710D22EEB
:100DA4000630F9000E30F800B030F700F70BD82EFB
:100DB400F80BD82EF90BD82E0A128A11DB240A124A
:100DC4008A1101300A128A112B250A128A11FC0198
:100DD400772E772E772E772E0A128A110028831207
:100DE40003138601F52E061EF82EF92E772F861E84
:100DF400FC2EFD2E772F061F002F012F772F861B29
:100E0400042F052FF52E772F772F772F06108615B1
:100E140086190D2F112F831203130615142F831215
:100E2400031306110619172F1B2F8312031386149D
:100E34001E2F831203138610061E212F222F2E2FFE
:100E4400861E252F262F2E2F061F292F2A2F2E2FC1
:100E5400861B2D2F2E2F302FFD01872F8610061471
:100E6400061E352F362F432F861E392F3A2F432F38
:100E7400061F3D2F3E2F432F861B412F422F472F06
:100E8400432FFD010314FD0D872F06118614061E42
:100E94004C2F4D2F5A2F861E502F512F5A2F061F7D
:100EA400542F552F5A2F861B582F592F5F2F5A2FE7
:100EB4000230F0007008FD00872F86110615061E0B
:100EC400642F652F722F861E682F692F722F061FBD
:100ED4006C2F6D2F722F861B702F712F772F722F0F
:100EE4000330F0007008FD00872F061E7A2F7B2F39
:100EF400082F861E7E2F7F2F082F061F822F832FF9
:100F0400082F861F862F872F082F061A8A2F8B2FCC
:100F1400992F861E8E2F8F2F992F061F922F932F76
:100F2400992F861F962F972F992FFB01DB2F061ED3
:100F34009C2F9D2FAD2F861AA02FA12FAD2F061FFA
:100F4400A42FA52FAD2F861FA82FA92FAD2FFB01EE
:100F54000314FB0DDB2F061EB02FB12FC22F861EEC
:100F6400B42FB52FC22F061BB82FB92FC22F861F3F
:100F7400BC2FBD2FC22F0230F0007008FB00DB2F06
:100F8400061EC52FC62FDB2F861EC92FCA2FDB2FA7
:100F9400061FCD2FCE2FDB2F861BD12FD22FDB2F79
:100FA4000330F0007008FB00DB2FDB2FDB2FDB2F7F
:100FB400DB2F061EDE2FDF2FDB2F861EE22FE32F13
:100FC400DB2F061FE62FE72FDB2F861FEA2FEB2FE1
:100FD400DB2FEC2F7D08F00002300310F00DFF3EF4
:100FE400031DEF2F20307007F1007B087107F2001A
:0C0FF4007208840083130008FF2F08001F
:02400E007AFF37
:00000001FF
